:020000040000FA
:100000008316860183128C018D018E018F01900170
:1000100091018E013C3094008D013C3095008C01A3
:100020003C3096001E208C0A960B12288D0A950BE8
:1000300010288E0A940B102809280928FF309800F0
:10004000FF3092002820920B2228980B20280800CD
:100050000C088F000D0890000E0891003C309300B2
:1000600000308600FF3097000000970B34288F0B7C
:100070003A284320900B3D284720910B40284B20E5
:10008000930B322808000608FC3986000800060891
:0E009000FA39860008000608F93986000800D3
:02009E0000342C
:0200A00000342A
:02400E00F13F80
:00000001FF
