:020000040000FA
:1000000083168501860183121E30850001308C0025
:1000100080308D0001308E001E30930046201E205F
:100020004620272046201E200E28FA308F000A3056
:100030009100910B19288F0B172808008C1B342076
:100040008C1B24288C0D262801308C0008008D1B69
:100050002B288D0D2D2801308D0008000C088600FE
:1000600008000D08860008000E183B2801308E009D
:100070001E3093003F2802308E001D309300080090
:100080001B30850008001308850008000A30920024
:1000900043202E201520402031201520920B482887
:0200A000080056
:0400A20000340034F2
:02400E00F13F80
:00000001FF
