:020000040000FA
:1000000083160F3081138600850183128E019001C3
:1000100004308F00EF308C000C08860006080F3982
:100020008D000D090F398D000D080E0203191928D6
:100030001F208C0D043090078F0B0C2807280D080B
:100040002620100791003120850008008207003427
:1000500001340234003403340034003400340434F6
:100060000800820700340134043407340E340234AB
:100070000534083400340334063409340F340A34A8
:080080000B340C340D340800B0
:04008800003400340C
:02400E00F13F80
:00000001FF
