:020000040000FA
:1000000083160F30811386008501880187018312D2
:10001000882058208020612090206A2098206A2023
:10002000A4010430A300EF30A000200886000608D9
:100030000F39A10021090F39A1002108220203195B
:1000400022282820A00D0430A407A30B152810286F
:10005000210831202407A5003C20A02088004F2043
:1000600008008207003401340234003403340034C1
:10007000003400340434080082070034313434344E
:100080002A342A3432343534383430343334363444
:100090003934233441344234433444340800FA3090
:1000A000A6001B30A700A70B5328A60B5128080059
:1000B000FA30A6002730A700A70B5C28A60B5A2809
:1000C00008000030A6000D30A700A70B6528A60B7E
:1000D00063280800FE30A6000130A700A70B6E2899
:1000E000A60B6C280800FA30A6008130A7001E304D
:1000F000A800A80B7928A70B7728A60B752808005D
:1001000000308700063088000715582007110800C6
:10011000003087000C3088000715582007110800B0
:1001200000308700013088000715582007110800AB
:10013000003087000230880007155820071108009A
:0A0140000630870058200711080060
:04014A000034003449
:02400E00E428A4
:02401000FF3E71
:00000001FF
