:020000040000FA
:1000000083168601850183128C018E018D018F017B
:10001000063093008F01093092008E010630910066
:100020008D01093090008C018C0A2820900B142837
:100030008C018D0A2820910B11288D018E0A282011
:10004000920B8E018F0A28200E28930B0B2808286C
:100050006D309400EB3095001E3085000C0849206F
:100060009700170986001D3085000D08492097006C
:10007000170986001B3085000E08492086001730BE
:1000800085000F0849208600950B2C28940B2A2800
:1000900008008207FC346034DA34F2346634B63453
:0A00A000BE34E034FE34F6340800EC
:0400AA0000340034EA
:02400E00F13F80
:00000001FF
