:020000040000FA
:1000000083160F30811386008501880187018312D2
:10001000850188018701860199206920912072203D
:10002000A1207B20A9207B20B9204C308800B9205A
:100030004F308800B92056308800B92045308800FC
:10004000B92020308800B9204C308800B9204F30CA
:100050008800B92056308800B92045308800B92082
:1000600053308800B92020308800A9208420B9208E
:1000700054308800B9204F308800B92020308800E3
:10008000B9204C308800B9204F308800B920563054
:100090008800B92045308800B92020308800B92078
:1000A0004C308800B9204F308800B9205630880085
:1000B000B92045308800B9202E30880084201028CF
:1000C000FA30A6001B30A700A70B6428A60B6228F5
:1000D0000800FA30A6002730A700A70B6D28A60B52
:1000E0006B2808000030A6000D30A700A70B76286B
:1000F000A60B74280800FE30A6000130A700A70B4D
:100100007F28A60B7D280800FA30A6008130A700C2
:100110001E30A800A80B8A28A70B8828A60B8628C3
:100120000800003087000630880007156920071195
:100130000800003087000C3088000715692007117F
:10014000080000308700013088000715692007117A
:100150000800003087000230880007156920071169
:10016000080000308700C230880007156920071199
:0C01700008000630870069200711080015
:04017C000034003417
:02400E00E428A4
:02401000FF3E71
:00000001FF
